{
  "_format": "hh-sol-artifact-1",
  "contractName": "PickupManager",
  "sourceName": "contracts/PickupManager.sol",
  "abi": [
    {
      "inputs": [],
      "stateMutability": "nonpayable",
      "type": "constructor"
    },
    {
      "inputs": [
        {
          "internalType": "address",
          "name": "owner",
          "type": "address"
        }
      ],
      "name": "OwnableInvalidOwner",
      "type": "error"
    },
    {
      "inputs": [
        {
          "internalType": "address",
          "name": "account",
          "type": "address"
        }
      ],
      "name": "OwnableUnauthorizedAccount",
      "type": "error"
    },
    {
      "anonymous": false,
      "inputs": [
        {
          "indexed": true,
          "internalType": "address",
          "name": "previousOwner",
          "type": "address"
        },
        {
          "indexed": true,
          "internalType": "address",
          "name": "newOwner",
          "type": "address"
        }
      ],
      "name": "OwnershipTransferred",
      "type": "event"
    },
    {
      "anonymous": false,
      "inputs": [
        {
          "indexed": true,
          "internalType": "bytes32",
          "name": "pickupIdHash",
          "type": "bytes32"
        },
        {
          "indexed": false,
          "internalType": "string",
          "name": "pickupId",
          "type": "string"
        },
        {
          "indexed": true,
          "internalType": "address",
          "name": "courier",
          "type": "address"
        },
        {
          "indexed": false,
          "internalType": "uint256",
          "name": "timestamp",
          "type": "uint256"
        }
      ],
      "name": "PickupAssigned",
      "type": "event"
    },
    {
      "anonymous": false,
      "inputs": [
        {
          "indexed": true,
          "internalType": "bytes32",
          "name": "pickupIdHash",
          "type": "bytes32"
        },
        {
          "indexed": false,
          "internalType": "string",
          "name": "pickupId",
          "type": "string"
        },
        {
          "indexed": true,
          "internalType": "address",
          "name": "courier",
          "type": "address"
        },
        {
          "indexed": false,
          "internalType": "uint256",
          "name": "timestamp",
          "type": "uint256"
        }
      ],
      "name": "PickupCompleted",
      "type": "event"
    },
    {
      "anonymous": false,
      "inputs": [
        {
          "indexed": true,
          "internalType": "bytes32",
          "name": "pickupIdHash",
          "type": "bytes32"
        },
        {
          "indexed": false,
          "internalType": "string",
          "name": "pickupId",
          "type": "string"
        },
        {
          "indexed": true,
          "internalType": "address",
          "name": "user",
          "type": "address"
        },
        {
          "indexed": false,
          "internalType": "string",
          "name": "material",
          "type": "string"
        },
        {
          "indexed": false,
          "internalType": "uint256",
          "name": "weightKg",
          "type": "uint256"
        }
      ],
      "name": "PickupCreated",
      "type": "event"
    },
    {
      "anonymous": false,
      "inputs": [
        {
          "indexed": true,
          "internalType": "address",
          "name": "user",
          "type": "address"
        },
        {
          "indexed": false,
          "internalType": "enum PickupManager.UserRole",
          "name": "role",
          "type": "uint8"
        }
      ],
      "name": "RoleAssigned",
      "type": "event"
    },
    {
      "inputs": [
        {
          "internalType": "string",
          "name": "pickupId",
          "type": "string"
        }
      ],
      "name": "acceptPickup",
      "outputs": [],
      "stateMutability": "nonpayable",
      "type": "function"
    },
    {
      "inputs": [
        {
          "internalType": "address",
          "name": "user",
          "type": "address"
        },
        {
          "internalType": "enum PickupManager.UserRole",
          "name": "role",
          "type": "uint8"
        }
      ],
      "name": "assignRole",
      "outputs": [],
      "stateMutability": "nonpayable",
      "type": "function"
    },
    {
      "inputs": [
        {
          "internalType": "string",
          "name": "pickupId",
          "type": "string"
        }
      ],
      "name": "completePickup",
      "outputs": [],
      "stateMutability": "nonpayable",
      "type": "function"
    },
    {
      "inputs": [
        {
          "internalType": "address",
          "name": "",
          "type": "address"
        }
      ],
      "name": "courierActivePickups",
      "outputs": [
        {
          "internalType": "uint256",
          "name": "",
          "type": "uint256"
        }
      ],
      "stateMutability": "view",
      "type": "function"
    },
    {
      "inputs": [
        {
          "internalType": "string",
          "name": "pickupId",
          "type": "string"
        },
        {
          "internalType": "string",
          "name": "material",
          "type": "string"
        },
        {
          "internalType": "uint256",
          "name": "weightKg",
          "type": "uint256"
        }
      ],
      "name": "createPickup",
      "outputs": [
        {
          "internalType": "bytes32",
          "name": "",
          "type": "bytes32"
        }
      ],
      "stateMutability": "nonpayable",
      "type": "function"
    },
    {
      "inputs": [
        {
          "internalType": "string",
          "name": "pickupId",
          "type": "string"
        }
      ],
      "name": "getPickup",
      "outputs": [
        {
          "components": [
            {
              "internalType": "string",
              "name": "pickupId",
              "type": "string"
            },
            {
              "internalType": "address",
              "name": "user",
              "type": "address"
            },
            {
              "internalType": "address",
              "name": "courier",
              "type": "address"
            },
            {
              "internalType": "enum PickupManager.PickupStatus",
              "name": "status",
              "type": "uint8"
            },
            {
              "internalType": "string",
              "name": "material",
              "type": "string"
            },
            {
              "internalType": "uint256",
              "name": "weightKg",
              "type": "uint256"
            },
            {
              "internalType": "uint256",
              "name": "createdAt",
              "type": "uint256"
            },
            {
              "internalType": "uint256",
              "name": "assignedAt",
              "type": "uint256"
            },
            {
              "internalType": "uint256",
              "name": "completedAt",
              "type": "uint256"
            }
          ],
          "internalType": "struct PickupManager.Pickup",
          "name": "",
          "type": "tuple"
        }
      ],
      "stateMutability": "view",
      "type": "function"
    },
    {
      "inputs": [
        {
          "internalType": "uint256",
          "name": "index",
          "type": "uint256"
        }
      ],
      "name": "getPickupByIndex",
      "outputs": [
        {
          "components": [
            {
              "internalType": "string",
              "name": "pickupId",
              "type": "string"
            },
            {
              "internalType": "address",
              "name": "user",
              "type": "address"
            },
            {
              "internalType": "address",
              "name": "courier",
              "type": "address"
            },
            {
              "internalType": "enum PickupManager.PickupStatus",
              "name": "status",
              "type": "uint8"
            },
            {
              "internalType": "string",
              "name": "material",
              "type": "string"
            },
            {
              "internalType": "uint256",
              "name": "weightKg",
              "type": "uint256"
            },
            {
              "internalType": "uint256",
              "name": "createdAt",
              "type": "uint256"
            },
            {
              "internalType": "uint256",
              "name": "assignedAt",
              "type": "uint256"
            },
            {
              "internalType": "uint256",
              "name": "completedAt",
              "type": "uint256"
            }
          ],
          "internalType": "struct PickupManager.Pickup",
          "name": "",
          "type": "tuple"
        }
      ],
      "stateMutability": "view",
      "type": "function"
    },
    {
      "inputs": [],
      "name": "getPickupCount",
      "outputs": [
        {
          "internalType": "uint256",
          "name": "",
          "type": "uint256"
        }
      ],
      "stateMutability": "view",
      "type": "function"
    },
    {
      "inputs": [
        {
          "internalType": "address",
          "name": "user",
          "type": "address"
        }
      ],
      "name": "getRole",
      "outputs": [
        {
          "internalType": "enum PickupManager.UserRole",
          "name": "",
          "type": "uint8"
        }
      ],
      "stateMutability": "view",
      "type": "function"
    },
    {
      "inputs": [],
      "name": "owner",
      "outputs": [
        {
          "internalType": "address",
          "name": "",
          "type": "address"
        }
      ],
      "stateMutability": "view",
      "type": "function"
    },
    {
      "inputs": [
        {
          "internalType": "uint256",
          "name": "",
          "type": "uint256"
        }
      ],
      "name": "pickupIds",
      "outputs": [
        {
          "internalType": "bytes32",
          "name": "",
          "type": "bytes32"
        }
      ],
      "stateMutability": "view",
      "type": "function"
    },
    {
      "inputs": [
        {
          "internalType": "bytes32",
          "name": "",
          "type": "bytes32"
        }
      ],
      "name": "pickups",
      "outputs": [
        {
          "internalType": "string",
          "name": "pickupId",
          "type": "string"
        },
        {
          "internalType": "address",
          "name": "user",
          "type": "address"
        },
        {
          "internalType": "address",
          "name": "courier",
          "type": "address"
        },
        {
          "internalType": "enum PickupManager.PickupStatus",
          "name": "status",
          "type": "uint8"
        },
        {
          "internalType": "string",
          "name": "material",
          "type": "string"
        },
        {
          "internalType": "uint256",
          "name": "weightKg",
          "type": "uint256"
        },
        {
          "internalType": "uint256",
          "name": "createdAt",
          "type": "uint256"
        },
        {
          "internalType": "uint256",
          "name": "assignedAt",
          "type": "uint256"
        },
        {
          "internalType": "uint256",
          "name": "completedAt",
          "type": "uint256"
        }
      ],
      "stateMutability": "view",
      "type": "function"
    },
    {
      "inputs": [],
      "name": "renounceOwnership",
      "outputs": [],
      "stateMutability": "nonpayable",
      "type": "function"
    },
    {
      "inputs": [
        {
          "internalType": "address",
          "name": "newOwner",
          "type": "address"
        }
      ],
      "name": "transferOwnership",
      "outputs": [],
      "stateMutability": "nonpayable",
      "type": "function"
    },
    {
      "inputs": [
        {
          "internalType": "address",
          "name": "",
          "type": "address"
        }
      ],
      "name": "userRoles",
      "outputs": [
        {
          "internalType": "enum PickupManager.UserRole",
          "name": "",
          "type": "uint8"
        }
      ],
      "stateMutability": "view",
      "type": "function"
    }
  ],
  "bytecode": "0x608060405234801561001057600080fd5b50338061003757604051631e4fbdf760e01b81526000600482015260240160405180910390fd5b6100408161009a565b503360008181526002602052604090819020805460ff1916600390811790915590517f4ac36fa53f167ceb85964be512e01de2a3b8bdb9862f917da079deeeff689b389161008d916100ea565b60405180910390a2610112565b600080546001600160a01b038381166001600160a01b0319831681178455604051919092169283917f8be0079c531659141344cd1fd0a4f28419497f9722a3daafe3b4186f6b6457e09190a35050565b602081016004831061010c57634e487b7160e01b600052602160045260246000fd5b91905290565b6117ff806101216000396000f3fe608060405234801561001057600080fd5b50600436106100f55760003560e01c80638da5cb5b11610097578063d28e441211610066578063d28e441214610215578063d821d7771461023d578063f2fde38b1461025d578063f702cc011461027057600080fd5b80638da5cb5b146101cc578063a3c77ec3146101e7578063bbb7b050146101fa578063cc2781121461020257600080fd5b806350d9112c116100d357806350d9112c14610179578063630a195b1461018e578063715018a6146101a157806374d5e100146101a957600080fd5b8063165d6f2e146100fa5780632f70ca74146101205780634427673314610140575b600080fd5b61010d6101083660046111f1565b610283565b6040519081526020015b60405180910390f35b61013361012e366004611265565b61060d565b6040516101179190611305565b61016c61014e3660046113d9565b6001600160a01b031660009081526002602052604090205460ff1690565b60405161011791906113fb565b61018c61018736600461140e565b610842565b005b61018c61019c366004611450565b610a61565b61018c610b30565b61016c6101b73660046113d9565b60026020526000908152604090205460ff1681565b6000546040516001600160a01b039091168152602001610117565b61018c6101f536600461140e565b610b44565b60035461010d565b61010d610210366004611265565b610cf4565b610228610223366004611265565b610d15565b6040516101179998979695949392919061148b565b61010d61024b3660046113d9565b60046020526000908152604090205481565b61018c61026b3660046113d9565b610e80565b61013361027e36600461140e565b610ebe565b6000846102cb5760405162461bcd60e51b8152602060048201526011602482015270125b9d985b1a59081c1a58dadd5c081251607a1b60448201526064015b60405180910390fd5b6000821161031b5760405162461bcd60e51b815260206004820152601d60248201527f576569676874206d7573742062652067726561746572207468616e203000000060448201526064016102c2565b3360009081526002602052604081205460ff16600381111561033f5761033f6112c4565b03610399573360008181526002602052604090819020805460ff1916600190811790915590517f4ac36fa53f167ceb85964be512e01de2a3b8bdb9862f917da079deeeff689b3891610390916113fb565b60405180910390a25b600086866040516103ab929190611503565b6040518091039020905060016000828152602001908152602001600020600501546000146104135760405162461bcd60e51b81526020600482015260156024820152745069636b757020616c72656164792065786973747360581b60448201526064016102c2565b60405180610120016040528088888080601f016020809104026020016040519081016040528093929190818152602001838380828437600092018290525093855250503360208401525060408201819052606090910190815260200186868080601f01602080910402602001604051908101604052809392919081815260200183838082843760009201829052509385525050506020808301879052426040808501919091526060840183905260809093018290528482526001905220815181906104de90826115b4565b5060208201516001820180546001600160a01b03199081166001600160a01b03938416179091556040840151600284018054928316919093169081178355606085015192916001600160a81b03191617600160a01b836003811115610545576105456112c4565b02179055506080820151600382019061055e90826115b4565b5060a0820151600482015560c0820151600582015560e0820151600682015561010090910151600790910155600380546001810182556000919091527fc2575a0e9e593c00f959f8c92f12db2869c3395a3b0502d05e2516446f71f85b01819055604051339082907f0853f1bd7c044b198aee77d15e59de69ba10592047f983b3c3fa2dc215bf950b906105fb908b908b908b908b908b9061169d565b60405180910390a39695505050505050565b61061561115a565b600354821061065c5760405162461bcd60e51b8152602060048201526013602482015272496e646578206f7574206f6620626f756e647360681b60448201526064016102c2565b6001600060038481548110610673576106736116d7565b90600052602060002001548152602001908152602001600020604051806101200160405290816000820180546106a890611529565b80601f01602080910402602001604051908101604052809291908181526020018280546106d490611529565b80156107215780601f106106f657610100808354040283529160200191610721565b820191906000526020600020905b81548152906001019060200180831161070457829003601f168201915b505050918352505060018201546001600160a01b03908116602083015260028301549081166040830152606090910190600160a01b900460ff16600381111561076c5761076c6112c4565b600381111561077d5761077d6112c4565b815260200160038201805461079190611529565b80601f01602080910402602001604051908101604052809291908181526020018280546107bd90611529565b801561080a5780601f106107df5761010080835404028352916020019161080a565b820191906000526020600020905b8154815290600101906020018083116107ed57829003601f168201915b505050505081526020016004820154815260200160058201548152602001600682015481526020016007820154815250509050919050565b60023360009081526002602052604090205460ff166003811115610868576108686112c4565b1480610897575060033360009081526002602052604090205460ff166003811115610895576108956112c4565b145b6108b35760405162461bcd60e51b81526004016102c2906116ed565b600082826040516108c5929190611503565b604080519182900390912060008181526001602052919091206005810154919250906109035760405162461bcd60e51b81526004016102c290611730565b60016002820154600160a01b900460ff166003811115610925576109256112c4565b146109685760405162461bcd60e51b8152602060048201526013602482015272141a58dadd5c081b9bdd08185cdcda59db9959606a1b60448201526064016102c2565b60028101546001600160a01b031633146109c45760405162461bcd60e51b815260206004820152601860248201527f4e6f74207468652061737369676e656420636f7572696572000000000000000060448201526064016102c2565b60028101805460ff60a01b1916600160a11b1790554260078201553360009081526004602052604090205415610a1557336000908152600460205260408120805491610a0f83611775565b91905055505b336001600160a01b0316827fc047ce168c214732337e1043e6173f99120687e2e93bda8dccfc4fe99c01d8f1868642604051610a539392919061178c565b60405180910390a350505050565b610a696110dd565b6001600160a01b038216610ab15760405162461bcd60e51b815260206004820152600f60248201526e496e76616c6964206164647265737360881b60448201526064016102c2565b6001600160a01b0382166000908152600260205260409020805482919060ff19166001836003811115610ae657610ae66112c4565b0217905550816001600160a01b03167f4ac36fa53f167ceb85964be512e01de2a3b8bdb9862f917da079deeeff689b3882604051610b2491906113fb565b60405180910390a25050565b610b386110dd565b610b42600061110a565b565b60023360009081526002602052604090205460ff166003811115610b6a57610b6a6112c4565b1480610b99575060033360009081526002602052604090205460ff166003811115610b9757610b976112c4565b145b610bb55760405162461bcd60e51b81526004016102c2906116ed565b60008282604051610bc7929190611503565b60408051918290039091206000818152600160205291909120600581015491925090610c055760405162461bcd60e51b81526004016102c290611730565b60006002820154600160a01b900460ff166003811115610c2757610c276112c4565b14610c6b5760405162461bcd60e51b81526020600482015260146024820152735069636b7570206e6f7420617661696c61626c6560601b60448201526064016102c2565b6002810180546001600160a81b0319163360ff60a01b19811691909117600160a01b179091554260068301556000908152600460205260408120805491610cb1836117b0565b9190505550336001600160a01b0316827ffce4594685ae8496d2088dd16850a5e6a72bd05b47201883fcc3888a0370cd35868642604051610a539392919061178c565b60038181548110610d0457600080fd5b600091825260209091200154905081565b600160205260009081526040902080548190610d3090611529565b80601f0160208091040260200160405190810160405280929190818152602001828054610d5c90611529565b8015610da95780601f10610d7e57610100808354040283529160200191610da9565b820191906000526020600020905b815481529060010190602001808311610d8c57829003601f168201915b505050506001830154600284015460038501805494956001600160a01b03938416959383169450600160a01b90920460ff1692610de590611529565b80601f0160208091040260200160405190810160405280929190818152602001828054610e1190611529565b8015610e5e5780601f10610e3357610100808354040283529160200191610e5e565b820191906000526020600020905b815481529060010190602001808311610e4157829003601f168201915b5050505050908060040154908060050154908060060154908060070154905089565b610e886110dd565b6001600160a01b038116610eb257604051631e4fbdf760e01b8152600060048201526024016102c2565b610ebb8161110a565b50565b610ec661115a565b60008383604051610ed8929190611503565b604051809103902090506000600160008381526020019081526020016000206005015411610f185760405162461bcd60e51b81526004016102c290611730565b6000818152600160205260409081902081516101208101909252805482908290610f4190611529565b80601f0160208091040260200160405190810160405280929190818152602001828054610f6d90611529565b8015610fba5780601f10610f8f57610100808354040283529160200191610fba565b820191906000526020600020905b815481529060010190602001808311610f9d57829003601f168201915b505050918352505060018201546001600160a01b03908116602083015260028301549081166040830152606090910190600160a01b900460ff166003811115611005576110056112c4565b6003811115611016576110166112c4565b815260200160038201805461102a90611529565b80601f016020809104026020016040519081016040528092919081815260200182805461105690611529565b80156110a35780601f10611078576101008083540402835291602001916110a3565b820191906000526020600020905b81548152906001019060200180831161108657829003601f168201915b5050505050815260200160048201548152602001600582015481526020016006820154815260200160078201548152505091505092915050565b6000546001600160a01b03163314610b425760405163118cdaa760e01b81523360048201526024016102c2565b600080546001600160a01b038381166001600160a01b0319831681178455604051919092169283917f8be0079c531659141344cd1fd0a4f28419497f9722a3daafe3b4186f6b6457e09190a35050565b60408051610120810182526060808252600060208301819052928201839052909190820190815260200160608152602001600081526020016000815260200160008152602001600081525090565b60008083601f8401126111ba57600080fd5b50813567ffffffffffffffff8111156111d257600080fd5b6020830191508360208285010111156111ea57600080fd5b9250929050565b60008060008060006060868803121561120957600080fd5b853567ffffffffffffffff8082111561122157600080fd5b61122d89838a016111a8565b9097509550602088013591508082111561124657600080fd5b50611253888289016111a8565b96999598509660400135949350505050565b60006020828403121561127757600080fd5b5035919050565b6000815180845260005b818110156112a457602081850181015186830182015201611288565b506000602082860101526020601f19601f83011685010191505092915050565b634e487b7160e01b600052602160045260246000fd5b60048110610ebb57634e487b7160e01b600052602160045260246000fd5b611301816112da565b9052565b602081526000825161012080602085015261132461014085018361127e565b9150602085015161134060408601826001600160a01b03169052565b5060408501516001600160a01b038116606086015250606085015161136860808601826112f8565b506080850151848303601f190160a0860152611384838261127e565b92505060a085015160c085015260c085015160e085015260e0850151610100818187015280870151838701525050508091505092915050565b80356001600160a01b03811681146113d457600080fd5b919050565b6000602082840312156113eb57600080fd5b6113f4826113bd565b9392505050565b60208101611408836112da565b91905290565b6000806020838503121561142157600080fd5b823567ffffffffffffffff81111561143857600080fd5b611444858286016111a8565b90969095509350505050565b6000806040838503121561146357600080fd5b61146c836113bd565b915060208301356004811061148057600080fd5b809150509250929050565b600061012080835261149f8184018d61127e565b6001600160a01b038c811660208601528b16604085015290506114c1896112da565b88606084015282810360808401526114d9818961127e565b9150508560a08301528460c08301528360e0830152826101008301529a9950505050505050505050565b8183823760009101908152919050565b634e487b7160e01b600052604160045260246000fd5b600181811c9082168061153d57607f821691505b60208210810361155d57634e487b7160e01b600052602260045260246000fd5b50919050565b601f8211156115af576000816000526020600020601f850160051c8101602086101561158c5750805b601f850160051c820191505b818110156115ab57828155600101611598565b5050505b505050565b815167ffffffffffffffff8111156115ce576115ce611513565b6115e2816115dc8454611529565b84611563565b602080601f83116001811461161757600084156115ff5750858301515b600019600386901b1c1916600185901b1785556115ab565b600085815260208120601f198616915b8281101561164657888601518255948401946001909101908401611627565b50858210156116645787850151600019600388901b60f8161c191681555b5050505050600190811b01905550565b81835281816020850137506000828201602090810191909152601f909101601f19169091010190565b6060815260006116b1606083018789611674565b82810360208401526116c4818688611674565b9150508260408301529695505050505050565b634e487b7160e01b600052603260045260246000fd5b60208082526023908201527f556e617574686f72697a65643a20636f757269657220726f6c652072657175696040820152621c995960ea1b606082015260800190565b602080825260159082015274141a58dadd5c08191bd95cc81b9bdd08195e1a5cdd605a1b604082015260600190565b634e487b7160e01b600052601160045260246000fd5b6000816117845761178461175f565b506000190190565b6040815260006117a0604083018587611674565b9050826020830152949350505050565b6000600182016117c2576117c261175f565b506001019056fea2646970667358221220eafda3a364b0b179ba776bf45f80e347458a8af842810f094bb1e313a969b8a364736f6c63430008170033",
  "linkReferences": {},
  "deployedLinkReferences": {}
}