{
  "_format": "hh-sol-artifact-1",
  "contractName": "GreenReward",
  "sourceName": "contracts/GreenReward.sol",
  "abi": [
    {
      "inputs": [],
      "stateMutability": "nonpayable",
      "type": "constructor"
    },
    {
      "inputs": [
        {
          "internalType": "address",
          "name": "spender",
          "type": "address"
        },
        {
          "internalType": "uint256",
          "name": "allowance",
          "type": "uint256"
        },
        {
          "internalType": "uint256",
          "name": "needed",
          "type": "uint256"
        }
      ],
      "name": "ERC20InsufficientAllowance",
      "type": "error"
    },
    {
      "inputs": [
        {
          "internalType": "address",
          "name": "sender",
          "type": "address"
        },
        {
          "internalType": "uint256",
          "name": "balance",
          "type": "uint256"
        },
        {
          "internalType": "uint256",
          "name": "needed",
          "type": "uint256"
        }
      ],
      "name": "ERC20InsufficientBalance",
      "type": "error"
    },
    {
      "inputs": [
        {
          "internalType": "address",
          "name": "approver",
          "type": "address"
        }
      ],
      "name": "ERC20InvalidApprover",
      "type": "error"
    },
    {
      "inputs": [
        {
          "internalType": "address",
          "name": "receiver",
          "type": "address"
        }
      ],
      "name": "ERC20InvalidReceiver",
      "type": "error"
    },
    {
      "inputs": [
        {
          "internalType": "address",
          "name": "sender",
          "type": "address"
        }
      ],
      "name": "ERC20InvalidSender",
      "type": "error"
    },
    {
      "inputs": [
        {
          "internalType": "address",
          "name": "spender",
          "type": "address"
        }
      ],
      "name": "ERC20InvalidSpender",
      "type": "error"
    },
    {
      "inputs": [
        {
          "internalType": "address",
          "name": "owner",
          "type": "address"
        }
      ],
      "name": "OwnableInvalidOwner",
      "type": "error"
    },
    {
      "inputs": [
        {
          "internalType": "address",
          "name": "account",
          "type": "address"
        }
      ],
      "name": "OwnableUnauthorizedAccount",
      "type": "error"
    },
    {
      "anonymous": false,
      "inputs": [
        {
          "indexed": true,
          "internalType": "address",
          "name": "user",
          "type": "address"
        },
        {
          "indexed": false,
          "internalType": "string",
          "name": "material",
          "type": "string"
        },
        {
          "indexed": false,
          "internalType": "uint256",
          "name": "weightKg",
          "type": "uint256"
        },
        {
          "indexed": false,
          "internalType": "uint256",
          "name": "points",
          "type": "uint256"
        }
      ],
      "name": "ActivityRecorded",
      "type": "event"
    },
    {
      "anonymous": false,
      "inputs": [
        {
          "indexed": true,
          "internalType": "address",
          "name": "owner",
          "type": "address"
        },
        {
          "indexed": true,
          "internalType": "address",
          "name": "spender",
          "type": "address"
        },
        {
          "indexed": false,
          "internalType": "uint256",
          "name": "value",
          "type": "uint256"
        }
      ],
      "name": "Approval",
      "type": "event"
    },
    {
      "anonymous": false,
      "inputs": [
        {
          "indexed": true,
          "internalType": "address",
          "name": "previousOwner",
          "type": "address"
        },
        {
          "indexed": true,
          "internalType": "address",
          "name": "newOwner",
          "type": "address"
        }
      ],
      "name": "OwnershipTransferred",
      "type": "event"
    },
    {
      "anonymous": false,
      "inputs": [
        {
          "indexed": true,
          "internalType": "address",
          "name": "from",
          "type": "address"
        },
        {
          "indexed": true,
          "internalType": "address",
          "name": "to",
          "type": "address"
        },
        {
          "indexed": false,
          "internalType": "uint256",
          "name": "value",
          "type": "uint256"
        }
      ],
      "name": "Transfer",
      "type": "event"
    },
    {
      "inputs": [
        {
          "internalType": "address",
          "name": "owner",
          "type": "address"
        },
        {
          "internalType": "address",
          "name": "spender",
          "type": "address"
        }
      ],
      "name": "allowance",
      "outputs": [
        {
          "internalType": "uint256",
          "name": "",
          "type": "uint256"
        }
      ],
      "stateMutability": "view",
      "type": "function"
    },
    {
      "inputs": [
        {
          "internalType": "address",
          "name": "spender",
          "type": "address"
        },
        {
          "internalType": "uint256",
          "name": "value",
          "type": "uint256"
        }
      ],
      "name": "approve",
      "outputs": [
        {
          "internalType": "bool",
          "name": "",
          "type": "bool"
        }
      ],
      "stateMutability": "nonpayable",
      "type": "function"
    },
    {
      "inputs": [
        {
          "internalType": "address",
          "name": "account",
          "type": "address"
        }
      ],
      "name": "balanceOf",
      "outputs": [
        {
          "internalType": "uint256",
          "name": "",
          "type": "uint256"
        }
      ],
      "stateMutability": "view",
      "type": "function"
    },
    {
      "inputs": [],
      "name": "decimals",
      "outputs": [
        {
          "internalType": "uint8",
          "name": "",
          "type": "uint8"
        }
      ],
      "stateMutability": "view",
      "type": "function"
    },
    {
      "inputs": [
        {
          "internalType": "address",
          "name": "user",
          "type": "address"
        }
      ],
      "name": "getUserActivities",
      "outputs": [
        {
          "components": [
            {
              "internalType": "uint256",
              "name": "weightKg",
              "type": "uint256"
            },
            {
              "internalType": "uint8",
              "name": "materialScore",
              "type": "uint8"
            },
            {
              "internalType": "uint64",
              "name": "timestamp",
              "type": "uint64"
            }
          ],
          "internalType": "struct RecyclingActivity[]",
          "name": "",
          "type": "tuple[]"
        }
      ],
      "stateMutability": "view",
      "type": "function"
    },
    {
      "inputs": [
        {
          "internalType": "string",
          "name": "",
          "type": "string"
        }
      ],
      "name": "materialWeights",
      "outputs": [
        {
          "internalType": "uint8",
          "name": "",
          "type": "uint8"
        }
      ],
      "stateMutability": "view",
      "type": "function"
    },
    {
      "inputs": [],
      "name": "name",
      "outputs": [
        {
          "internalType": "string",
          "name": "",
          "type": "string"
        }
      ],
      "stateMutability": "view",
      "type": "function"
    },
    {
      "inputs": [],
      "name": "owner",
      "outputs": [
        {
          "internalType": "address",
          "name": "",
          "type": "address"
        }
      ],
      "stateMutability": "view",
      "type": "function"
    },
    {
      "inputs": [
        {
          "internalType": "address",
          "name": "user",
          "type": "address"
        },
        {
          "internalType": "string",
          "name": "material",
          "type": "string"
        },
        {
          "internalType": "uint256",
          "name": "weightKg",
          "type": "uint256"
        }
      ],
      "name": "recordActivity",
      "outputs": [
        {
          "internalType": "uint256",
          "name": "reward",
          "type": "uint256"
        }
      ],
      "stateMutability": "nonpayable",
      "type": "function"
    },
    {
      "inputs": [],
      "name": "renounceOwnership",
      "outputs": [],
      "stateMutability": "nonpayable",
      "type": "function"
    },
    {
      "inputs": [
        {
          "internalType": "string",
          "name": "material",
          "type": "string"
        },
        {
          "internalType": "uint8",
          "name": "weight",
          "type": "uint8"
        }
      ],
      "name": "setMaterialWeight",
      "outputs": [],
      "stateMutability": "nonpayable",
      "type": "function"
    },
    {
      "inputs": [],
      "name": "symbol",
      "outputs": [
        {
          "internalType": "string",
          "name": "",
          "type": "string"
        }
      ],
      "stateMutability": "view",
      "type": "function"
    },
    {
      "inputs": [],
      "name": "totalSupply",
      "outputs": [
        {
          "internalType": "uint256",
          "name": "",
          "type": "uint256"
        }
      ],
      "stateMutability": "view",
      "type": "function"
    },
    {
      "inputs": [
        {
          "internalType": "address",
          "name": "to",
          "type": "address"
        },
        {
          "internalType": "uint256",
          "name": "value",
          "type": "uint256"
        }
      ],
      "name": "transfer",
      "outputs": [
        {
          "internalType": "bool",
          "name": "",
          "type": "bool"
        }
      ],
      "stateMutability": "nonpayable",
      "type": "function"
    },
    {
      "inputs": [
        {
          "internalType": "address",
          "name": "from",
          "type": "address"
        },
        {
          "internalType": "address",
          "name": "to",
          "type": "address"
        },
        {
          "internalType": "uint256",
          "name": "value",
          "type": "uint256"
        }
      ],
      "name": "transferFrom",
      "outputs": [
        {
          "internalType": "bool",
          "name": "",
          "type": "bool"
        }
      ],
      "stateMutability": "nonpayable",
      "type": "function"
    },
    {
      "inputs": [
        {
          "internalType": "address",
          "name": "newOwner",
          "type": "address"
        }
      ],
      "name": "transferOwnership",
      "outputs": [],
      "stateMutability": "nonpayable",
      "type": "function"
    }
  ],
  "bytecode": "0x60806040523480156200001157600080fd5b50336040518060400160405280601281526020017123b932b2b7102932bbb0b932102a37b5b2b760711b8152506040518060400160405280600381526020016211d49560ea1b81525081600390816200006b919062000298565b5060046200007a828262000298565b5050506001600160a01b038116620000ac57604051631e4fbdf760e01b81526000600482015260240160405180910390fd5b620000b7816200019f565b50600a6007604051620000d79066706c617374696360c81b815260070190565b90815260408051918290036020018220805460ff9490941660ff1994851617905564676c61737360d81b825260076005808401829052825193849003602590810185208054600c908816179055643830b832b960d91b85528482018390528351948590038101852080546008908816179055641b595d185b60da1b85529084018290528251938490030183208054600f9086161790556a656c656374726f6e69637360a81b8352600b8301525190819003602b01902080546014921691909117905562000364565b600580546001600160a01b038381166001600160a01b0319831681179093556040519116919082907f8be0079c531659141344cd1fd0a4f28419497f9722a3daafe3b4186f6b6457e090600090a35050565b634e487b7160e01b600052604160045260246000fd5b600181811c908216806200021c57607f821691505b6020821081036200023d57634e487b7160e01b600052602260045260246000fd5b50919050565b601f82111562000293576000816000526020600020601f850160051c810160208610156200026e5750805b601f850160051c820191505b818110156200028f578281556001016200027a565b5050505b505050565b81516001600160401b03811115620002b457620002b4620001f1565b620002cc81620002c5845462000207565b8462000243565b602080601f831160018114620003045760008415620002eb5750858301515b600019600386901b1c1916600185901b1785556200028f565b600085815260208120601f198616915b82811015620003355788860151825594840194600190910190840162000314565b5085821015620003545787850151600019600388901b60f8161c191681555b5050505050600190811b01905550565b610e2c80620003746000396000f3fe608060405234801561001057600080fd5b50600436106101005760003560e01c80638da5cb5b11610097578063b563e82111610066578063b563e82114610220578063dd62ed3e14610233578063f2fde38b1461026c578063fa9716631461027f57600080fd5b80638da5cb5b146101ca57806395d89b41146101e5578063a9059cbb146101ed578063b42696c81461020057600080fd5b806323b872dd116100d357806323b872dd1461016f578063313ce5671461018257806370a0823114610197578063715018a6146101c057600080fd5b806306fdde0314610105578063095ea7b314610123578063135d0ad41461014657806318160ddd14610167575b600080fd5b61010d6102ad565b60405161011a91906109d9565b60405180910390f35b610136610131366004610a44565b61033f565b604051901515815260200161011a565b610159610154366004610ab7565b610359565b60405190815260200161011a565b600254610159565b61013661017d366004610b11565b6104bf565b60125b60405160ff909116815260200161011a565b6101596101a5366004610b4d565b6001600160a01b031660009081526020819052604090205490565b6101c86104e3565b005b6005546040516001600160a01b03909116815260200161011a565b61010d6104f7565b6101366101fb366004610a44565b610506565b61021361020e366004610b4d565b610514565b60405161011a9190610b6f565b6101c861022e366004610bd5565b6105b0565b610159610241366004610c32565b6001600160a01b03918216600090815260016020908152604080832093909416825291909152205490565b6101c861027a366004610b4d565b6105f3565b61018561028d366004610c7b565b805160208183018101805160078252928201919093012091525460ff1681565b6060600380546102bc90610d2c565b80601f01602080910402602001604051908101604052809291908181526020018280546102e890610d2c565b80156103355780601f1061030a57610100808354040283529160200191610335565b820191906000526020600020905b81548152906001019060200180831161031857829003601f168201915b5050505050905090565b60003361034d818585610631565b60019150505b92915050565b6000610363610643565b600060078585604051610377929190610d66565b9081526040519081900360200190205460ff169050806103d55760405162461bcd60e51b8152602060048201526014602482015273155b9cdd5c1c1bdc9d1959081b585d195c9a585b60621b60448201526064015b60405180910390fd5b6103e260ff821684610d8c565b91506103ee8683610670565b6001600160a01b0386166000818152600660209081526040808320815160608101835288815260ff80881682860190815267ffffffffffffffff428116848701908152855460018181018855968a5297909820935160029097029093019586555194909201805495519091166101000268ffffffffffffffffff199095169390911692909217929092179055517f6f567d1ecf2d18d012b3271c0f79207efe9381b4c8714d0c6897a7de91460b69906104ae908890889088908890610da3565b60405180910390a250949350505050565b6000336104cd8582856106aa565b6104d8858585610729565b506001949350505050565b6104eb610643565b6104f56000610788565b565b6060600480546102bc90610d2c565b60003361034d818585610729565b6001600160a01b0381166000908152600660209081526040808320805482518185028101850190935280835260609492939192909184015b828210156105a557600084815260209081902060408051606081018252600286029092018054835260019081015460ff811684860152610100900467ffffffffffffffff1691830191909152908352909201910161054c565b505050509050919050565b6105b8610643565b80600784846040516105cb929190610d66565b908152604051908190036020019020805460ff9290921660ff19909216919091179055505050565b6105fb610643565b6001600160a01b03811661062557604051631e4fbdf760e01b8152600060048201526024016103cc565b61062e81610788565b50565b61063e83838360016107da565b505050565b6005546001600160a01b031633146104f55760405163118cdaa760e01b81523360048201526024016103cc565b6001600160a01b03821661069a5760405163ec442f0560e01b8152600060048201526024016103cc565b6106a6600083836108af565b5050565b6001600160a01b03838116600090815260016020908152604080832093861683529290522054600019811015610723578181101561071457604051637dc7a0d960e11b81526001600160a01b038416600482015260248101829052604481018390526064016103cc565b610723848484840360006107da565b50505050565b6001600160a01b03831661075357604051634b637e8f60e11b8152600060048201526024016103cc565b6001600160a01b03821661077d5760405163ec442f0560e01b8152600060048201526024016103cc565b61063e8383836108af565b600580546001600160a01b038381166001600160a01b0319831681179093556040519116919082907f8be0079c531659141344cd1fd0a4f28419497f9722a3daafe3b4186f6b6457e090600090a35050565b6001600160a01b0384166108045760405163e602df0560e01b8152600060048201526024016103cc565b6001600160a01b03831661082e57604051634a1406b160e11b8152600060048201526024016103cc565b6001600160a01b038085166000908152600160209081526040808320938716835292905220829055801561072357826001600160a01b0316846001600160a01b03167f8c5be1e5ebec7d5bd14f71427d1e84f3dd0314c0f7b2291e5b200ac8c7c3b925846040516108a191815260200190565b60405180910390a350505050565b6001600160a01b0383166108da5780600260008282546108cf9190610de3565b9091555061094c9050565b6001600160a01b0383166000908152602081905260409020548181101561092d5760405163391434e360e21b81526001600160a01b038516600482015260248101829052604481018390526064016103cc565b6001600160a01b03841660009081526020819052604090209082900390555b6001600160a01b03821661096857600280548290039055610987565b6001600160a01b03821660009081526020819052604090208054820190555b816001600160a01b0316836001600160a01b03167fddf252ad1be2c89b69c2b068fc378daa952ba7f163c4a11628f55a4df523b3ef836040516109cc91815260200190565b60405180910390a3505050565b60006020808352835180602085015260005b81811015610a07578581018301518582016040015282016109eb565b506000604082860101526040601f19601f8301168501019250505092915050565b80356001600160a01b0381168114610a3f57600080fd5b919050565b60008060408385031215610a5757600080fd5b610a6083610a28565b946020939093013593505050565b60008083601f840112610a8057600080fd5b50813567ffffffffffffffff811115610a9857600080fd5b602083019150836020828501011115610ab057600080fd5b9250929050565b60008060008060608587031215610acd57600080fd5b610ad685610a28565b9350602085013567ffffffffffffffff811115610af257600080fd5b610afe87828801610a6e565b9598909750949560400135949350505050565b600080600060608486031215610b2657600080fd5b610b2f84610a28565b9250610b3d60208501610a28565b9150604084013590509250925092565b600060208284031215610b5f57600080fd5b610b6882610a28565b9392505050565b602080825282518282018190526000919060409081850190868401855b82811015610bc8578151805185528681015160ff168786015285015167ffffffffffffffff168585015260609093019290850190600101610b8c565b5091979650505050505050565b600080600060408486031215610bea57600080fd5b833567ffffffffffffffff811115610c0157600080fd5b610c0d86828701610a6e565b909450925050602084013560ff81168114610c2757600080fd5b809150509250925092565b60008060408385031215610c4557600080fd5b610c4e83610a28565b9150610c5c60208401610a28565b90509250929050565b634e487b7160e01b600052604160045260246000fd5b600060208284031215610c8d57600080fd5b813567ffffffffffffffff80821115610ca557600080fd5b818401915084601f830112610cb957600080fd5b813581811115610ccb57610ccb610c65565b604051601f8201601f19908116603f01168101908382118183101715610cf357610cf3610c65565b81604052828152876020848701011115610d0c57600080fd5b826020860160208301376000928101602001929092525095945050505050565b600181811c90821680610d4057607f821691505b602082108103610d6057634e487b7160e01b600052602260045260246000fd5b50919050565b8183823760009101908152919050565b634e487b7160e01b600052601160045260246000fd5b808202811582820484141761035357610353610d76565b606081528360608201528385608083013760006080858301015260006080601f19601f870116830101905083602083015282604083015295945050505050565b8082018082111561035357610353610d7656fea2646970667358221220b54c065c1d9a3c8eec246e9a4992ab0b2bd00d5bafd95d6bc7a7d681eb79997564736f6c63430008170033",
  "linkReferences": {},
  "deployedLinkReferences": {}
}